{
  "contractName": "Token",
  "abi": [
    {
      "constant": true,
      "inputs": [],
      "name": "totalSupply",
      "outputs": [
        {
          "internalType": "uint256",
          "name": "",
          "type": "uint256"
        }
      ],
      "payable": false,
      "stateMutability": "view",
      "type": "function"
    },
    {
      "constant": false,
      "inputs": [],
      "name": "Orb",
      "outputs": [],
      "payable": false,
      "stateMutability": "nonpayable",
      "type": "function"
    }
  ],
  "bytecode": "0x6080604052348015600f57600080fd5b50609b8061001e6000396000f3fe6080604052348015600f57600080fd5b506004361060325760003560e01c806318160ddd1460375780636f41153514604f575b600080fd5b603d6057565b60408051918252519081900360200190f35b6055605d565b005b60005481565b620f424060005556fea265627a7a7231582023064a91dbe679447fef7809ea0b680882bc00c7f697b945544d4479a4ea055264736f6c63430005100032",
  "source": "pragma solidity ^0.5.16;\n\ncontract Token{\n    //construction\n    //set total Tokens\n    //read the total number of tokens\n    uint256 public totalSupply;\n\n    function Orb() public{\n        totalSupply = 1000000;\n    }\n}\n",
  "sourcePath": "/Users/mindsgn/projects/orbyt/orbyt-token/contracts/Token.sol",
  "compiler": {
    "name": "solc",
    "version": "0.5.16+commit.9c3226ce.Emscripten.clang"
  },
  "schemaVersion": "3.3.4",
  "updatedAt": "2021-04-20T00:14:35.327Z",
  "networkType": "ethereum",
  "devdoc": {
    "methods": {}
  },
  "userdoc": {
    "methods": {}
  }
}